{
    "abi": [
        {
            "inputs": [
                {
                    "internalType": "address",
                    "name": "owner",
                    "type": "address"
                },
                {
                    "internalType": "address",
                    "name": "legendCoin_",
                    "type": "address"
                },
                {
                    "internalType": "address",
                    "name": "metadata_",
                    "type": "address"
                },
                {
                    "internalType": "uint256",
                    "name": "powerUpCost_",
                    "type": "uint256"
                }
            ],
            "stateMutability": "nonpayable",
            "type": "constructor"
        },
        {
            "inputs": [],
            "name": "InsufficientBurnBalance",
            "type": "error"
        },
        {
            "inputs": [],
            "name": "InvalidPowerUpId",
            "type": "error"
        },
        {
            "inputs": [],
            "name": "LegendCoinSpendFailed",
            "type": "error"
        },
        {
            "inputs": [],
            "name": "PurchasingDisabled",
            "type": "error"
        },
        {
            "anonymous": false,
            "inputs": [
                {
                    "indexed": true,
                    "internalType": "address",
                    "name": "owner",
                    "type": "address"
                },
                {
                    "indexed": true,
                    "internalType": "address",
                    "name": "operator",
                    "type": "address"
                },
                {
                    "indexed": false,
                    "internalType": "bool",
                    "name": "approved",
                    "type": "bool"
                }
            ],
            "name": "ApprovalForAll",
            "type": "event"
        },
        {
            "anonymous": false,
            "inputs": [
                {
                    "indexed": false,
                    "internalType": "uint256",
                    "name": "_fromTokenId",
                    "type": "uint256"
                },
                {
                    "indexed": false,
                    "internalType": "uint256",
                    "name": "_toTokenId",
                    "type": "uint256"
                }
            ],
            "name": "BatchMetadataUpdate",
            "type": "event"
        },
        {
            "anonymous": false,
            "inputs": [
                {
                    "indexed": true,
                    "internalType": "address",
                    "name": "legendCoinAddress",
                    "type": "address"
                }
            ],
            "name": "LegendCoinAddressUpdated",
            "type": "event"
        },
        {
            "anonymous": false,
            "inputs": [
                {
                    "indexed": true,
                    "internalType": "address",
                    "name": "metadataAddress",
                    "type": "address"
                }
            ],
            "name": "MetadataAddressUpdated",
            "type": "event"
        },
        {
            "anonymous": false,
            "inputs": [
                {
                    "indexed": false,
                    "internalType": "uint256",
                    "name": "_tokenId",
                    "type": "uint256"
                }
            ],
            "name": "MetadataUpdate",
            "type": "event"
        },
        {
            "anonymous": false,
            "inputs": [
                {
                    "indexed": true,
                    "internalType": "address",
                    "name": "user",
                    "type": "address"
                },
                {
                    "indexed": true,
                    "internalType": "address",
                    "name": "newOwner",
                    "type": "address"
                }
            ],
            "name": "OwnershipTransferred",
            "type": "event"
        },
        {
            "anonymous": false,
            "inputs": [
                {
                    "indexed": true,
                    "internalType": "uint256",
                    "name": "powerUpId",
                    "type": "uint256"
                },
                {
                    "indexed": true,
                    "internalType": "uint8",
                    "name": "rarity",
                    "type": "uint8"
                }
            ],
            "name": "PowerUpAdded",
            "type": "event"
        },
        {
            "anonymous": false,
            "inputs": [
                {
                    "indexed": true,
                    "internalType": "uint256",
                    "name": "powerUpCost",
                    "type": "uint256"
                }
            ],
            "name": "PowerUpCostUpdated",
            "type": "event"
        },
        {
            "anonymous": false,
            "inputs": [
                {
                    "indexed": true,
                    "internalType": "uint256",
                    "name": "powerUpId",
                    "type": "uint256"
                }
            ],
            "name": "PowerUpRemoved",
            "type": "event"
        },
        {
            "anonymous": false,
            "inputs": [
                {
                    "indexed": true,
                    "internalType": "uint256",
                    "name": "powerUpId",
                    "type": "uint256"
                },
                {
                    "indexed": true,
                    "internalType": "uint8",
                    "name": "rarity",
                    "type": "uint8"
                }
            ],
            "name": "PowerUpUpdated",
            "type": "event"
        },
        {
            "anonymous": false,
            "inputs": [
                {
                    "indexed": true,
                    "internalType": "bool",
                    "name": "enabled",
                    "type": "bool"
                }
            ],
            "name": "PurchasingEnabledUpdated",
            "type": "event"
        },
        {
            "anonymous": false,
            "inputs": [
                {
                    "indexed": true,
                    "internalType": "address",
                    "name": "operator",
                    "type": "address"
                },
                {
                    "indexed": true,
                    "internalType": "address",
                    "name": "from",
                    "type": "address"
                },
                {
                    "indexed": true,
                    "internalType": "address",
                    "name": "to",
                    "type": "address"
                },
                {
                    "indexed": false,
                    "internalType": "uint256[]",
                    "name": "ids",
                    "type": "uint256[]"
                },
                {
                    "indexed": false,
                    "internalType": "uint256[]",
                    "name": "amounts",
                    "type": "uint256[]"
                }
            ],
            "name": "TransferBatch",
            "type": "event"
        },
        {
            "anonymous": false,
            "inputs": [
                {
                    "indexed": true,
                    "internalType": "address",
                    "name": "operator",
                    "type": "address"
                },
                {
                    "indexed": true,
                    "internalType": "address",
                    "name": "from",
                    "type": "address"
                },
                {
                    "indexed": true,
                    "internalType": "address",
                    "name": "to",
                    "type": "address"
                },
                {
                    "indexed": false,
                    "internalType": "uint256",
                    "name": "id",
                    "type": "uint256"
                },
                {
                    "indexed": false,
                    "internalType": "uint256",
                    "name": "amount",
                    "type": "uint256"
                }
            ],
            "name": "TransferSingle",
            "type": "event"
        },
        {
            "anonymous": false,
            "inputs": [
                {
                    "indexed": false,
                    "internalType": "string",
                    "name": "value",
                    "type": "string"
                },
                {
                    "indexed": true,
                    "internalType": "uint256",
                    "name": "id",
                    "type": "uint256"
                }
            ],
            "name": "URI",
            "type": "event"
        },
        {
            "inputs": [
                {
                    "internalType": "uint8",
                    "name": "rarity",
                    "type": "uint8"
                }
            ],
            "name": "addPowerUp",
            "outputs": [
                {
                    "internalType": "uint256",
                    "name": "powerUpId",
                    "type": "uint256"
                }
            ],
            "stateMutability": "nonpayable",
            "type": "function"
        },
        {
            "inputs": [
                {
                    "internalType": "address",
                    "name": "",
                    "type": "address"
                },
                {
                    "internalType": "uint256",
                    "name": "",
                    "type": "uint256"
                }
            ],
            "name": "balanceOf",
            "outputs": [
                {
                    "internalType": "uint256",
                    "name": "",
                    "type": "uint256"
                }
            ],
            "stateMutability": "view",
            "type": "function"
        },
        {
            "inputs": [
                {
                    "internalType": "address[]",
                    "name": "owners",
                    "type": "address[]"
                },
                {
                    "internalType": "uint256[]",
                    "name": "ids",
                    "type": "uint256[]"
                }
            ],
            "name": "balanceOfBatch",
            "outputs": [
                {
                    "internalType": "uint256[]",
                    "name": "balances",
                    "type": "uint256[]"
                }
            ],
            "stateMutability": "view",
            "type": "function"
        },
        {
            "inputs": [
                {
                    "internalType": "uint256",
                    "name": "id",
                    "type": "uint256"
                },
                {
                    "internalType": "uint256",
                    "name": "amount",
                    "type": "uint256"
                }
            ],
            "name": "burnPowerUp",
            "outputs": [],
            "stateMutability": "nonpayable",
            "type": "function"
        },
        {
            "inputs": [],
            "name": "decimals",
            "outputs": [
                {
                    "internalType": "uint256",
                    "name": "",
                    "type": "uint256"
                }
            ],
            "stateMutability": "view",
            "type": "function"
        },
        {
            "inputs": [],
            "name": "getNextPowerUpId",
            "outputs": [
                {
                    "internalType": "uint256",
                    "name": "powerUpId",
                    "type": "uint256"
                }
            ],
            "stateMutability": "view",
            "type": "function"
        },
        {
            "inputs": [
                {
                    "internalType": "uint256",
                    "name": "powerUpId",
                    "type": "uint256"
                }
            ],
            "name": "getPowerUpExists",
            "outputs": [
                {
                    "internalType": "bool",
                    "name": "",
                    "type": "bool"
                }
            ],
            "stateMutability": "view",
            "type": "function"
        },
        {
            "inputs": [
                {
                    "internalType": "uint256",
                    "name": "powerUpId",
                    "type": "uint256"
                }
            ],
            "name": "getPowerUpRarity",
            "outputs": [
                {
                    "internalType": "uint256",
                    "name": "rarity",
                    "type": "uint256"
                }
            ],
            "stateMutability": "view",
            "type": "function"
        },
        {
            "inputs": [],
            "name": "getTotalActivePowerUps",
            "outputs": [
                {
                    "internalType": "uint256",
                    "name": "availablePowerUps",
                    "type": "uint256"
                }
            ],
            "stateMutability": "view",
            "type": "function"
        },
        {
            "inputs": [],
            "name": "getTotalPowerUps",
            "outputs": [
                {
                    "internalType": "uint256",
                    "name": "totalPowerUps",
                    "type": "uint256"
                }
            ],
            "stateMutability": "view",
            "type": "function"
        },
        {
            "inputs": [
                {
                    "internalType": "address",
                    "name": "",
                    "type": "address"
                },
                {
                    "internalType": "address",
                    "name": "",
                    "type": "address"
                }
            ],
            "name": "isApprovedForAll",
            "outputs": [
                {
                    "internalType": "bool",
                    "name": "",
                    "type": "bool"
                }
            ],
            "stateMutability": "view",
            "type": "function"
        },
        {
            "inputs": [],
            "name": "legendCoin",
            "outputs": [
                {
                    "internalType": "contract ILegendCoin",
                    "name": "",
                    "type": "address"
                }
            ],
            "stateMutability": "view",
            "type": "function"
        },
        {
            "inputs": [],
            "name": "metadata",
            "outputs": [
                {
                    "internalType": "contract IMetadata",
                    "name": "",
                    "type": "address"
                }
            ],
            "stateMutability": "view",
            "type": "function"
        },
        {
            "inputs": [],
            "name": "name",
            "outputs": [
                {
                    "internalType": "string",
                    "name": "",
                    "type": "string"
                }
            ],
            "stateMutability": "view",
            "type": "function"
        },
        {
            "inputs": [],
            "name": "owner",
            "outputs": [
                {
                    "internalType": "address",
                    "name": "",
                    "type": "address"
                }
            ],
            "stateMutability": "view",
            "type": "function"
        },
        {
            "inputs": [],
            "name": "powerUpCost",
            "outputs": [
                {
                    "internalType": "uint256",
                    "name": "",
                    "type": "uint256"
                }
            ],
            "stateMutability": "view",
            "type": "function"
        },
        {
            "inputs": [
                {
                    "internalType": "uint256",
                    "name": "amount",
                    "type": "uint256"
                }
            ],
            "name": "purchasePowerUp",
            "outputs": [
                {
                    "internalType": "uint256[]",
                    "name": "",
                    "type": "uint256[]"
                }
            ],
            "stateMutability": "nonpayable",
            "type": "function"
        },
        {
            "inputs": [],
            "name": "purchasingEnabled",
            "outputs": [
                {
                    "internalType": "bool",
                    "name": "",
                    "type": "bool"
                }
            ],
            "stateMutability": "view",
            "type": "function"
        },
        {
            "inputs": [
                {
                    "internalType": "uint256",
                    "name": "seed",
                    "type": "uint256"
                }
            ],
            "name": "randomPowerUpId",
            "outputs": [
                {
                    "internalType": "uint256",
                    "name": "powerUpId",
                    "type": "uint256"
                }
            ],
            "stateMutability": "view",
            "type": "function"
        },
        {
            "inputs": [],
            "name": "refreshAllMetadata",
            "outputs": [],
            "stateMutability": "nonpayable",
            "type": "function"
        },
        {
            "inputs": [],
            "name": "refreshAllMetadata4906",
            "outputs": [],
            "stateMutability": "nonpayable",
            "type": "function"
        },
        {
            "inputs": [
                {
                    "internalType": "uint256",
                    "name": "id",
                    "type": "uint256"
                }
            ],
            "name": "refreshMetadata",
            "outputs": [],
            "stateMutability": "nonpayable",
            "type": "function"
        },
        {
            "inputs": [
                {
                    "internalType": "uint256",
                    "name": "id",
                    "type": "uint256"
                }
            ],
            "name": "refreshMetadata4906",
            "outputs": [],
            "stateMutability": "nonpayable",
            "type": "function"
        },
        {
            "inputs": [
                {
                    "internalType": "uint256",
                    "name": "powerUpId",
                    "type": "uint256"
                }
            ],
            "name": "removePowerUp",
            "outputs": [],
            "stateMutability": "nonpayable",
            "type": "function"
        },
        {
            "inputs": [
                {
                    "internalType": "address",
                    "name": "from",
                    "type": "address"
                },
                {
                    "internalType": "address",
                    "name": "to",
                    "type": "address"
                },
                {
                    "internalType": "uint256[]",
                    "name": "ids",
                    "type": "uint256[]"
                },
                {
                    "internalType": "uint256[]",
                    "name": "amounts",
                    "type": "uint256[]"
                },
                {
                    "internalType": "bytes",
                    "name": "data",
                    "type": "bytes"
                }
            ],
            "name": "safeBatchTransferFrom",
            "outputs": [],
            "stateMutability": "nonpayable",
            "type": "function"
        },
        {
            "inputs": [
                {
                    "internalType": "address",
                    "name": "from",
                    "type": "address"
                },
                {
                    "internalType": "address",
                    "name": "to",
                    "type": "address"
                },
                {
                    "internalType": "uint256",
                    "name": "id",
                    "type": "uint256"
                },
                {
                    "internalType": "uint256",
                    "name": "amount",
                    "type": "uint256"
                },
                {
                    "internalType": "bytes",
                    "name": "data",
                    "type": "bytes"
                }
            ],
            "name": "safeTransferFrom",
            "outputs": [],
            "stateMutability": "nonpayable",
            "type": "function"
        },
        {
            "inputs": [
                {
                    "internalType": "address",
                    "name": "operator",
                    "type": "address"
                },
                {
                    "internalType": "bool",
                    "name": "approved",
                    "type": "bool"
                }
            ],
            "name": "setApprovalForAll",
            "outputs": [],
            "stateMutability": "nonpayable",
            "type": "function"
        },
        {
            "inputs": [
                {
                    "internalType": "address",
                    "name": "legendCoinAddress",
                    "type": "address"
                }
            ],
            "name": "setLegendCoinAddress",
            "outputs": [],
            "stateMutability": "nonpayable",
            "type": "function"
        },
        {
            "inputs": [
                {
                    "internalType": "address",
                    "name": "metadataAddress",
                    "type": "address"
                }
            ],
            "name": "setMetadataAddress",
            "outputs": [],
            "stateMutability": "nonpayable",
            "type": "function"
        },
        {
            "inputs": [
                {
                    "internalType": "uint256",
                    "name": "cost",
                    "type": "uint256"
                }
            ],
            "name": "setPowerUpCost",
            "outputs": [],
            "stateMutability": "nonpayable",
            "type": "function"
        },
        {
            "inputs": [
                {
                    "internalType": "bool",
                    "name": "enabled",
                    "type": "bool"
                }
            ],
            "name": "setPurchasingEnabled",
            "outputs": [],
            "stateMutability": "nonpayable",
            "type": "function"
        },
        {
            "inputs": [
                {
                    "internalType": "bytes4",
                    "name": "interfaceId",
                    "type": "bytes4"
                }
            ],
            "name": "supportsInterface",
            "outputs": [
                {
                    "internalType": "bool",
                    "name": "",
                    "type": "bool"
                }
            ],
            "stateMutability": "view",
            "type": "function"
        },
        {
            "inputs": [],
            "name": "symbol",
            "outputs": [
                {
                    "internalType": "string",
                    "name": "",
                    "type": "string"
                }
            ],
            "stateMutability": "view",
            "type": "function"
        },
        {
            "inputs": [
                {
                    "internalType": "address",
                    "name": "newOwner",
                    "type": "address"
                }
            ],
            "name": "transferOwnership",
            "outputs": [],
            "stateMutability": "nonpayable",
            "type": "function"
        },
        {
            "inputs": [
                {
                    "internalType": "uint256",
                    "name": "powerUpId",
                    "type": "uint256"
                },
                {
                    "internalType": "uint8",
                    "name": "rarity",
                    "type": "uint8"
                }
            ],
            "name": "updatePowerUpRarity",
            "outputs": [],
            "stateMutability": "nonpayable",
            "type": "function"
        },
        {
            "inputs": [
                {
                    "internalType": "uint256",
                    "name": "id",
                    "type": "uint256"
                }
            ],
            "name": "uri",
            "outputs": [
                {
                    "internalType": "string",
                    "name": "",
                    "type": "string"
                }
            ],
            "stateMutability": "view",
            "type": "function"
        }
    ],
    "bytecode": {
        "object": "0x60806040523480156200001157600080fd5b506040516200255f3803806200255f83398101604081905262000034916200015e565b600280546001600160a01b0319166001600160a01b0386169081179091556040518591906000907f8be0079c531659141344cd1fd0a4f28419497f9722a3daafe3b4186f6b6457e0908290a35060408051808201909152601581527f4c6567656e64204d61707320506f7765722055707300000000000000000000006020820152600390620000c4908262000255565b506040805180820190915260098152682623a7222827aba2a960b91b6020820152600490620000f4908262000255565b506000600555600680546001600160a01b039485166001600160a01b031991821617909155600880549390941692169190911790915560075550600b805460ff1916600117905562000321565b80516001600160a01b03811681146200015957600080fd5b919050565b600080600080608085870312156200017557600080fd5b620001808562000141565b9350620001906020860162000141565b9250620001a06040860162000141565b6060959095015193969295505050565b634e487b7160e01b600052604160045260246000fd5b600181811c90821680620001db57607f821691505b602082108103620001fc57634e487b7160e01b600052602260045260246000fd5b50919050565b601f8211156200025057600081815260208120601f850160051c810160208610156200022b5750805b601f850160051c820191505b818110156200024c5782815560010162000237565b5050505b505050565b81516001600160401b03811115620002715762000271620001b0565b6200028981620002828454620001c6565b8462000202565b602080601f831160018114620002c15760008415620002a85750858301515b600019600386901b1c1916600185901b1785556200024c565b600085815260208120601f198616915b82811015620002f257888601518255948401946001909101908401620002d1565b5085821015620003115787850151600019600388901b60f8161c191681555b5050505050600190811b01905550565b61222e80620003316000396000f3fe608060405234801561001057600080fd5b506004361061021b5760003560e01c806388c7b1a911610125578063d46670fe116100ad578063e17b25af1161007c578063e17b25af14610472578063e985e9c514610485578063f242432a146104b3578063f2fde38b146104c6578063f7aef5c8146104d957600080fd5b8063d46670fe14610437578063d95ba42f1461044a578063d9c7591f1461045d578063db6e90da1461046a57600080fd5b8063a9aa90f1116100f4578063a9aa90f1146103f8578063bb3f1eb71461040b578063bed20a8714610413578063c1052b801461041b578063cba54f231461042e57600080fd5b806388c7b1a9146103b75780638da5cb5b146103ca57806395d89b41146103dd578063a22cb465146103e557600080fd5b80634357f192116101a857806361ae6f711161017757806361ae6f711461036357806372d0283814610376578063749ed41c1461037e57806378ab70c81461039157806386e873e7146103a457600080fd5b80634357f192146103155780634e1273f41461032857806357278aee1461034857806359f05c0c1461035057600080fd5b80630e89341c116101ef5780630e89341c146102a85780632eb2c2d6146102bb578063313ce567146102ce5780633264bdb5146102d7578063392f37e9146102ea57600080fd5b8062fdd58e1461022057806301ffc9a71461025b57806306fdde031461027e5780630c2aa49114610293575b600080fd5b61024861022e366004611a01565b600060208181529281526040808220909352908152205481565b6040519081526020015b60405180910390f35b61026e610269366004611a41565b6104ec565b6040519015158152602001610252565b610286610517565b6040516102529190611aae565b6102a66102a1366004611ac1565b6105a5565b005b6102866102b6366004611ac1565b61060b565b6102a66102c9366004611b68565b6106b9565b61024860055481565b6102a66102e5366004611ac1565b61095c565b6008546102fd906001600160a01b031681565b6040516001600160a01b039091168152602001610252565b6102a6610323366004611c23565b610a61565b61033b610336366004611c3e565b610ad5565b6040516102529190611caa565b610248610c0a565b61026e61035e366004611ac1565b610c20565b6102a6610371366004611cff565b610c78565b6102a6610d98565b61024861038c366004611ac1565b610dd8565b61033b61039f366004611ac1565b610e1d565b6102a66103b2366004611d39565b610fb0565b6102486103c5366004611d56565b611017565b6002546102fd906001600160a01b031681565b6102866110d0565b6102a66103f3366004611d71565b6110dd565b6102a6610406366004611da8565b611149565b6102486111b7565b6102a6611228565b6102a6610429366004611ac1565b6112f3565b61024860075481565b6006546102fd906001600160a01b031681565b6102a6610458366004611ac1565b611329565b600b5461026e9060ff1681565b600954610248565b6102a6610480366004611c23565b6113d6565b61026e610493366004611dca565b600160209081526000928352604080842090915290825290205460ff1681565b6102a66104c1366004611df4565b61144a565b6102a66104d4366004611c23565b611644565b6102486104e7366004611ac1565b6116ba565b60006001600160e01b03198216632483248360e11b148061051157506105118261177d565b92915050565b6003805461052490611e6c565b80601f016020809104026020016040519081016040528092919081815260200182805461055090611e6c565b801561059d5780601f106105725761010080835404028352916020019161059d565b820191906000526020600020905b81548152906001019060200180831161058057829003601f168201915b505050505081565b6002546001600160a01b031633146105d85760405162461bcd60e51b81526004016105cf90611ea0565b60405180910390fd5b600781905560405181907f326b16c4d6f8208bc001de2079232f35c5e93d8b6bea4cb984f615ed4e65d9c890600090a250565b606061061682610c20565b6106485760405162461bcd60e51b81526020600482015260036024820152620d0c0d60ea1b60448201526064016105cf565b6008546040516303a24d0760e21b8152600481018490526001600160a01b0390911690630e89341c90602401600060405180830381865afa158015610691573d6000803e3d6000fd5b505050506040513d6000823e601f3d908101601f191682016040526105119190810190611edc565b8483146106fa5760405162461bcd60e51b815260206004820152600f60248201526e0988a9c8ea890be9a92a69a82a8869608b1b60448201526064016105cf565b336001600160a01b038916148061073457506001600160a01b038816600090815260016020908152604080832033845290915290205460ff165b6107715760405162461bcd60e51b815260206004820152600e60248201526d1393d517d055551213d49256915160921b60448201526064016105cf565b60008060005b8781101561082c5788888281811061079157610791611f89565b9050602002013592508686828181106107ac576107ac611f89565b6001600160a01b038e16600090815260208181526040808320898452825282208054939091029490940135955085939250906107e9908490611fb5565b90915550506001600160a01b038a166000908152602081815260408083208684529091528120805484929061081f908490611fc8565b9091555050600101610777565b50886001600160a01b03168a6001600160a01b0316336001600160a01b03167f4a39dc06d4c0dbc64b70af90fd698a233a518aa5d07e595d983b8c0526c8f7fb8b8b8b8b604051610880949392919061200d565b60405180910390a46001600160a01b0389163b156109275760405163bc197c8160e01b808252906001600160a01b038b169063bc197c81906108d49033908f908e908e908e908e908e908e9060040161205d565b6020604051808303816000875af11580156108f3573d6000803e3d6000fd5b505050506040513d601f19601f8201168201806040525081019061091791906120c1565b6001600160e01b03191614610934565b6001600160a01b03891615155b6109505760405162461bcd60e51b81526004016105cf906120de565b50505050505050505050565b6002546001600160a01b031633146109865760405162461bcd60e51b81526004016105cf90611ea0565b6009548111156109a957604051633e7cdee560e11b815260040160405180910390fd5b60006109b6600183611fb5565b9050600981815481106109cb576109cb611f89565b600091825260208083209082040154600a8054601f9093166101000a90910460ff1690910390556009805483908110610a0657610a06611f89565b90600052602060002090602091828204019190066101000a81548160ff021916908360ff160217905550817fc9fa6660666080ba409dc4cd605545251f77ef35352b883eaa4f52be0704a5e860405160405180910390a25050565b6002546001600160a01b03163314610a8b5760405162461bcd60e51b81526004016105cf90611ea0565b600680546001600160a01b0319166001600160a01b0383169081179091556040517f5406916a6269ea124bb4785a5895958d579952fa7eff29bd567df3cfb04fbf8690600090a250565b6060838214610b185760405162461bcd60e51b815260206004820152600f60248201526e0988a9c8ea890be9a92a69a82a8869608b1b60448201526064016105cf565b8367ffffffffffffffff811115610b3157610b31611ec6565b604051908082528060200260200182016040528015610b5a578160200160208202803683370190505b50905060005b84811015610c0157600080878784818110610b7d57610b7d611f89565b9050602002016020810190610b929190611c23565b6001600160a01b03166001600160a01b031681526020019081526020016000206000858584818110610bc657610bc6611f89565b90506020020135815260200190815260200160002054828281518110610bee57610bee611f89565b6020908102919091010152600101610b60565b50949350505050565b600954600090610c1b906001611fc8565b905090565b6000806009610c30600185611fb5565b81548110610c4057610c40611f89565b60009182526020918290209181049091015460ff601f9092166101000a90041690508215801590610c715750600081115b9392505050565b6002546001600160a01b03163314610ca25760405162461bcd60e51b81526004016105cf90611ea0565b811580610cb0575060095482115b15610cce57604051633e7cdee560e11b815260040160405180910390fd5b6000610cdb600184611fb5565b905060098181548110610cf057610cf0611f89565b90600052602060002090602091828204019190069054906101000a900460ff16820360ff16600a600082825401925050819055508160098281548110610d3857610d38611f89565b90600052602060002090602091828204019190066101000a81548160ff021916908360ff1602179055508160ff16837f2e367f68e4911b6f1dfb6cc9fb50bbe3af394f972651b99d7374f0d40ebaf42160405160405180910390a3505050565b600954604080516001815260208101929092527f6bd5c950a8d8df17f772f5af37cb3655737899cbf903264b9795592da439661c910160405180910390a1565b60006009610de7600184611fb5565b81548110610df757610df7611f89565b60009182526020918290209181049091015460ff601f9092166101000a90041692915050565b600b5460609060ff16610e43576040516375a8194b60e01b815260040160405180910390fd5b6006546007546000916001600160a01b0316906304eb48f7903390610e69908790612108565b6040516001600160e01b031960e085901b1681526001600160a01b03909216600483015260248201526044016020604051808303816000875af1158015610eb4573d6000803e3d6000fd5b505050506040513d601f19601f82011682018060405250810190610ed8919061211f565b905080610ef857604051632b12862160e01b815260040160405180910390fd5b60008367ffffffffffffffff811115610f1357610f13611ec6565b604051908082528060200260200182016040528015610f3c578160200160208202803683370190505b50905060005b84811015610fa8576000610f586104e7836117cb565b905080838381518110610f6d57610f6d611f89565b602002602001018181525050610f953382600160405180602001604052806000815250611819565b5080610fa08161213c565b915050610f42565b509392505050565b6002546001600160a01b03163314610fda5760405162461bcd60e51b81526004016105cf90611ea0565b600b805460ff19168215159081179091556040517f1fe543bfde07c163fc81536fd9ba148ae296b836da5ec925b22707952acb989490600090a250565b6002546000906001600160a01b031633146110445760405162461bcd60e51b81526004016105cf90611ea0565b50600980546001810182556000828152602082047f6e1540171b6c0c960b71a7020d9f60077f6af931a8bbf590da0223dacf75c7af01805460ff808716601f9095166101000a858102910219909116179055600a8054830190559154604051909283917f9a39f13a32f2c6c5ba739a427259efc3d45c6edb342e887ab35def7bb94a4cfa9190a3919050565b6004805461052490611e6c565b3360008181526001602090815260408083206001600160a01b03871680855290835292819020805460ff191686151590811790915590519081529192917f17307eab39ab6107e8899845ad3d59bd9653f200f220920489ca2b5937696c31910160405180910390a35050565b61115282610c20565b61116f57604051633e7cdee560e11b815260040160405180910390fd5b336000908152602081815260408083208584529091529020548111156111a85760405163498a30b960e11b815260040160405180910390fd5b6111b3338383611961565b5050565b60008060005b600954811015611222576000600982815481106111dc576111dc611f89565b60009182526020918290209181049091015460ff601f9092166101000a9004161115611210578161120c8161213c565b9250505b8061121a8161213c565b9150506111bd565b50919050565b60015b60095481116112f0576008546040516303a24d0760e21b81526004810183905282917f6bb7ff708619ba0610cba295a58592e0451dee2622938c8755667688daf3529b916001600160a01b0390911690630e89341c90602401600060405180830381865afa1580156112a1573d6000803e3d6000fd5b505050506040513d6000823e601f3d908101601f191682016040526112c99190810190611edc565b6040516112d69190611aae565b60405180910390a2806112e88161213c565b91505061122b565b50565b6040518181527ff8e1a15aba9398e019f0b49df1a4fde98ee17ae345cb5f6b5e2c27f5033e8ce79060200160405180910390a150565b6008546040516303a24d0760e21b81526004810183905282917f6bb7ff708619ba0610cba295a58592e0451dee2622938c8755667688daf3529b916001600160a01b0390911690630e89341c90602401600060405180830381865afa158015611396573d6000803e3d6000fd5b505050506040513d6000823e601f3d908101601f191682016040526113be9190810190611edc565b6040516113cb9190611aae565b60405180910390a250565b6002546001600160a01b031633146114005760405162461bcd60e51b81526004016105cf90611ea0565b600880546001600160a01b0319166001600160a01b0383169081179091556040517fecd048926e13141636897d3f0d342bef0b1e0f18e90fd56c22ec853f222980b790600090a250565b336001600160a01b038716148061148457506001600160a01b038616600090815260016020908152604080832033845290915290205460ff165b6114c15760405162461bcd60e51b815260206004820152600e60248201526d1393d517d055551213d49256915160921b60448201526064016105cf565b6001600160a01b038616600090815260208181526040808320878452909152812080548592906114f2908490611fb5565b90915550506001600160a01b03851660009081526020818152604080832087845290915281208054859290611528908490611fc8565b909155505060408051858152602081018590526001600160a01b03808816929089169133917fc3d58168c5ae7397731d063d5bbf3d657854427343f4c083240f7aacaa2d0f62910160405180910390a46001600160a01b0385163b156116135760405163f23a6e6160e01b808252906001600160a01b0387169063f23a6e61906115c09033908b908a908a908a908a90600401612155565b6020604051808303816000875af11580156115df573d6000803e3d6000fd5b505050506040513d601f19601f8201168201806040525081019061160391906120c1565b6001600160e01b03191614611620565b6001600160a01b03851615155b61163c5760405162461bcd60e51b81526004016105cf906120de565b505050505050565b6002546001600160a01b0316331461166e5760405162461bcd60e51b81526004016105cf90611ea0565b600280546001600160a01b0319166001600160a01b03831690811790915560405133907f8be0079c531659141344cd1fd0a4f28419497f9722a3daafe3b4186f6b6457e090600090a350565b600080600a54836116cb919061219c565b905060005b60095481101561177657600981815481106116ed576116ed611f89565b60009182526020918290209181049091015460ff601f9092166101000a9004168210156117275761171f816001611fc8565b949350505050565b6009818154811061173a5761173a611f89565b60009182526020918290209181049091015461176291601f166101000a900460ff1683611fb5565b91508061176e8161213c565b9150506116d0565b5050919050565b60006301ffc9a760e01b6001600160e01b0319831614806117ae5750636cdb3d1360e11b6001600160e01b03198316145b806105115750506001600160e01b0319166303a24d0760e21b1490565b6000446117d9600143611fb5565b6040805160208101939093529040908201523360608201526080810183905260a00160408051601f19818403018152919052805160209091012092915050565b6001600160a01b0384166000908152602081815260408083208684529091528120805484929061184a908490611fc8565b909155505060408051848152602081018490526001600160a01b0386169160009133917fc3d58168c5ae7397731d063d5bbf3d657854427343f4c083240f7aacaa2d0f62910160405180910390a46001600160a01b0384163b156119325760405163f23a6e6160e01b808252906001600160a01b0386169063f23a6e61906118df9033906000908990899089906004016121be565b6020604051808303816000875af11580156118fe573d6000803e3d6000fd5b505050506040513d601f19601f8201168201806040525081019061192291906120c1565b6001600160e01b0319161461193f565b6001600160a01b03841615155b61195b5760405162461bcd60e51b81526004016105cf906120de565b50505050565b6001600160a01b03831660009081526020818152604080832085845290915281208054839290611992908490611fb5565b909155505060408051838152602081018390526000916001600160a01b0386169133917fc3d58168c5ae7397731d063d5bbf3d657854427343f4c083240f7aacaa2d0f62910160405180910390a4505050565b80356001600160a01b03811681146119fc57600080fd5b919050565b60008060408385031215611a1457600080fd5b611a1d836119e5565b946020939093013593505050565b6001600160e01b0319811681146112f057600080fd5b600060208284031215611a5357600080fd5b8135610c7181611a2b565b60005b83811015611a79578181015183820152602001611a61565b50506000910152565b60008151808452611a9a816020860160208601611a5e565b601f01601f19169290920160200192915050565b602081526000610c716020830184611a82565b600060208284031215611ad357600080fd5b5035919050565b60008083601f840112611aec57600080fd5b50813567ffffffffffffffff811115611b0457600080fd5b6020830191508360208260051b8501011115611b1f57600080fd5b9250929050565b60008083601f840112611b3857600080fd5b50813567ffffffffffffffff811115611b5057600080fd5b602083019150836020828501011115611b1f57600080fd5b60008060008060008060008060a0898b031215611b8457600080fd5b611b8d896119e5565b9750611b9b60208a016119e5565b9650604089013567ffffffffffffffff80821115611bb857600080fd5b611bc48c838d01611ada565b909850965060608b0135915080821115611bdd57600080fd5b611be98c838d01611ada565b909650945060808b0135915080821115611c0257600080fd5b50611c0f8b828c01611b26565b999c989b5096995094979396929594505050565b600060208284031215611c3557600080fd5b610c71826119e5565b60008060008060408587031215611c5457600080fd5b843567ffffffffffffffff80821115611c6c57600080fd5b611c7888838901611ada565b90965094506020870135915080821115611c9157600080fd5b50611c9e87828801611ada565b95989497509550505050565b6020808252825182820181905260009190848201906040850190845b81811015611ce257835183529284019291840191600101611cc6565b50909695505050505050565b803560ff811681146119fc57600080fd5b60008060408385031215611d1257600080fd5b82359150611d2260208401611cee565b90509250929050565b80151581146112f057600080fd5b600060208284031215611d4b57600080fd5b8135610c7181611d2b565b600060208284031215611d6857600080fd5b610c7182611cee565b60008060408385031215611d8457600080fd5b611d8d836119e5565b91506020830135611d9d81611d2b565b809150509250929050565b60008060408385031215611dbb57600080fd5b50508035926020909101359150565b60008060408385031215611ddd57600080fd5b611de6836119e5565b9150611d22602084016119e5565b60008060008060008060a08789031215611e0d57600080fd5b611e16876119e5565b9550611e24602088016119e5565b94506040870135935060608701359250608087013567ffffffffffffffff811115611e4e57600080fd5b611e5a89828a01611b26565b979a9699509497509295939492505050565b600181811c90821680611e8057607f821691505b60208210810361122257634e487b7160e01b600052602260045260246000fd5b6020808252600c908201526b15539055551213d49256915160a21b604082015260600190565b634e487b7160e01b600052604160045260246000fd5b600060208284031215611eee57600080fd5b815167ffffffffffffffff80821115611f0657600080fd5b818401915084601f830112611f1a57600080fd5b815181811115611f2c57611f2c611ec6565b604051601f8201601f19908116603f01168101908382118183101715611f5457611f54611ec6565b81604052828152876020848701011115611f6d57600080fd5b611f7e836020830160208801611a5e565b979650505050505050565b634e487b7160e01b600052603260045260246000fd5b634e487b7160e01b600052601160045260246000fd5b8181038181111561051157610511611f9f565b8082018082111561051157610511611f9f565b81835260006001600160fb1b03831115611ff457600080fd5b8260051b80836020870137939093016020019392505050565b604081526000612021604083018688611fdb565b8281036020840152611f7e818587611fdb565b81835281816020850137506000828201602090810191909152601f909101601f19169091010190565b6001600160a01b0389811682528816602082015260a06040820181905260009061208a908301888a611fdb565b828103606084015261209d818789611fdb565b905082810360808401526120b2818587612034565b9b9a5050505050505050505050565b6000602082840312156120d357600080fd5b8151610c7181611a2b565b60208082526010908201526f155394d0519157d49150d2541251539560821b604082015260600190565b808202811582820484141761051157610511611f9f565b60006020828403121561213157600080fd5b8151610c7181611d2b565b60006001820161214e5761214e611f9f565b5060010190565b6001600160a01b03878116825286166020820152604081018590526060810184905260a0608082018190526000906121909083018486612034565b98975050505050505050565b6000826121b957634e487b7160e01b600052601260045260246000fd5b500690565b6001600160a01b03868116825285166020820152604081018490526060810183905260a060808201819052600090611f7e90830184611a8256fea26469706673582212209976e6772c75cb5428ec53ef62d5f278436650eff765c35cfa4adb6899cd1edd64736f6c63430008120033",
        "linkReferences": {}
    },
    "methodIdentifiers": {
        "addPowerUp(uint8)": "88c7b1a9",
        "balanceOf(address,uint256)": "00fdd58e",
        "balanceOfBatch(address[],uint256[])": "4e1273f4",
        "burnPowerUp(uint256,uint256)": "a9aa90f1",
        "decimals()": "313ce567",
        "getNextPowerUpId()": "57278aee",
        "getPowerUpExists(uint256)": "59f05c0c",
        "getPowerUpRarity(uint256)": "749ed41c",
        "getTotalActivePowerUps()": "bb3f1eb7",
        "getTotalPowerUps()": "db6e90da",
        "isApprovedForAll(address,address)": "e985e9c5",
        "legendCoin()": "d46670fe",
        "metadata()": "392f37e9",
        "name()": "06fdde03",
        "owner()": "8da5cb5b",
        "powerUpCost()": "cba54f23",
        "purchasePowerUp(uint256)": "78ab70c8",
        "purchasingEnabled()": "d9c7591f",
        "randomPowerUpId(uint256)": "f7aef5c8",
        "refreshAllMetadata()": "bed20a87",
        "refreshAllMetadata4906()": "72d02838",
        "refreshMetadata(uint256)": "d95ba42f",
        "refreshMetadata4906(uint256)": "c1052b80",
        "removePowerUp(uint256)": "3264bdb5",
        "safeBatchTransferFrom(address,address,uint256[],uint256[],bytes)": "2eb2c2d6",
        "safeTransferFrom(address,address,uint256,uint256,bytes)": "f242432a",
        "setApprovalForAll(address,bool)": "a22cb465",
        "setLegendCoinAddress(address)": "4357f192",
        "setMetadataAddress(address)": "e17b25af",
        "setPowerUpCost(uint256)": "0c2aa491",
        "setPurchasingEnabled(bool)": "86e873e7",
        "supportsInterface(bytes4)": "01ffc9a7",
        "symbol()": "95d89b41",
        "transferOwnership(address)": "f2fde38b",
        "updatePowerUpRarity(uint256,uint8)": "61ae6f71",
        "uri(uint256)": "0e89341c"
    },
    "id": 2
}