{
    "_format": "hh-sol-artifact-1",
    "contractName": "LMAdventurers",
    "sourceName": "contracts/LMAdventurers.sol",
    "abi": [
        {
            "inputs": [
                {
                    "internalType": "address",
                    "name": "openSeaProxyRegistryAddress_",
                    "type": "address"
                }
            ],
            "stateMutability": "nonpayable",
            "type": "constructor"
        },
        {
            "anonymous": false,
            "inputs": [
                {
                    "indexed": true,
                    "internalType": "address",
                    "name": "owner",
                    "type": "address"
                },
                {
                    "indexed": true,
                    "internalType": "address",
                    "name": "approved",
                    "type": "address"
                },
                {
                    "indexed": true,
                    "internalType": "uint256",
                    "name": "tokenId",
                    "type": "uint256"
                }
            ],
            "name": "Approval",
            "type": "event"
        },
        {
            "anonymous": false,
            "inputs": [
                {
                    "indexed": true,
                    "internalType": "address",
                    "name": "owner",
                    "type": "address"
                },
                {
                    "indexed": true,
                    "internalType": "address",
                    "name": "operator",
                    "type": "address"
                },
                {
                    "indexed": false,
                    "internalType": "bool",
                    "name": "approved",
                    "type": "bool"
                }
            ],
            "name": "ApprovalForAll",
            "type": "event"
        },
        {
            "anonymous": false,
            "inputs": [
                {
                    "indexed": true,
                    "internalType": "address",
                    "name": "previousOwner",
                    "type": "address"
                },
                {
                    "indexed": true,
                    "internalType": "address",
                    "name": "newOwner",
                    "type": "address"
                }
            ],
            "name": "OwnershipTransferred",
            "type": "event"
        },
        {
            "anonymous": false,
            "inputs": [
                {
                    "indexed": true,
                    "internalType": "address",
                    "name": "from",
                    "type": "address"
                },
                {
                    "indexed": true,
                    "internalType": "address",
                    "name": "to",
                    "type": "address"
                },
                {
                    "indexed": true,
                    "internalType": "uint256",
                    "name": "tokenId",
                    "type": "uint256"
                }
            ],
            "name": "Transfer",
            "type": "event"
        },
        {
            "inputs": [],
            "name": "LMA_PRICE",
            "outputs": [
                {
                    "internalType": "uint256",
                    "name": "",
                    "type": "uint256"
                }
            ],
            "stateMutability": "view",
            "type": "function"
        },
        {
            "inputs": [],
            "name": "LMA_SUPPLY",
            "outputs": [
                {
                    "internalType": "uint256",
                    "name": "",
                    "type": "uint256"
                }
            ],
            "stateMutability": "view",
            "type": "function"
        },
        {
            "inputs": [
                {
                    "internalType": "address",
                    "name": "to",
                    "type": "address"
                },
                {
                    "internalType": "uint256",
                    "name": "tokenId",
                    "type": "uint256"
                }
            ],
            "name": "approve",
            "outputs": [],
            "stateMutability": "nonpayable",
            "type": "function"
        },
        {
            "inputs": [
                {
                    "internalType": "address",
                    "name": "owner",
                    "type": "address"
                }
            ],
            "name": "balanceOf",
            "outputs": [
                {
                    "internalType": "uint256",
                    "name": "",
                    "type": "uint256"
                }
            ],
            "stateMutability": "view",
            "type": "function"
        },
        {
            "inputs": [],
            "name": "contractURI",
            "outputs": [
                {
                    "internalType": "string",
                    "name": "",
                    "type": "string"
                }
            ],
            "stateMutability": "view",
            "type": "function"
        },
        {
            "inputs": [
                {
                    "internalType": "uint256",
                    "name": "tokenId",
                    "type": "uint256"
                }
            ],
            "name": "getApproved",
            "outputs": [
                {
                    "internalType": "address",
                    "name": "",
                    "type": "address"
                }
            ],
            "stateMutability": "view",
            "type": "function"
        },
        {
            "inputs": [
                {
                    "internalType": "address",
                    "name": "addr",
                    "type": "address"
                },
                {
                    "internalType": "uint256",
                    "name": "maxMints",
                    "type": "uint256"
                }
            ],
            "name": "getMintsRemaining",
            "outputs": [
                {
                    "internalType": "uint256",
                    "name": "",
                    "type": "uint256"
                }
            ],
            "stateMutability": "view",
            "type": "function"
        },
        {
            "inputs": [
                {
                    "internalType": "address",
                    "name": "owner",
                    "type": "address"
                },
                {
                    "internalType": "address",
                    "name": "operator",
                    "type": "address"
                }
            ],
            "name": "isApprovedForAll",
            "outputs": [
                {
                    "internalType": "bool",
                    "name": "",
                    "type": "bool"
                }
            ],
            "stateMutability": "view",
            "type": "function"
        },
        {
            "inputs": [],
            "name": "merkleRoot",
            "outputs": [
                {
                    "internalType": "bytes32",
                    "name": "",
                    "type": "bytes32"
                }
            ],
            "stateMutability": "view",
            "type": "function"
        },
        {
            "inputs": [
                {
                    "internalType": "uint256",
                    "name": "mintsRequested",
                    "type": "uint256"
                }
            ],
            "name": "mint",
            "outputs": [],
            "stateMutability": "payable",
            "type": "function"
        },
        {
            "inputs": [],
            "name": "name",
            "outputs": [
                {
                    "internalType": "string",
                    "name": "",
                    "type": "string"
                }
            ],
            "stateMutability": "view",
            "type": "function"
        },
        {
            "inputs": [],
            "name": "nextOwnerToExplicitlySet",
            "outputs": [
                {
                    "internalType": "uint256",
                    "name": "",
                    "type": "uint256"
                }
            ],
            "stateMutability": "view",
            "type": "function"
        },
        {
            "inputs": [],
            "name": "owner",
            "outputs": [
                {
                    "internalType": "address",
                    "name": "",
                    "type": "address"
                }
            ],
            "stateMutability": "view",
            "type": "function"
        },
        {
            "inputs": [
                {
                    "internalType": "uint256",
                    "name": "tokenId",
                    "type": "uint256"
                }
            ],
            "name": "ownerOf",
            "outputs": [
                {
                    "internalType": "address",
                    "name": "",
                    "type": "address"
                }
            ],
            "stateMutability": "view",
            "type": "function"
        },
        {
            "inputs": [],
            "name": "renounceOwnership",
            "outputs": [],
            "stateMutability": "nonpayable",
            "type": "function"
        },
        {
            "inputs": [
                {
                    "internalType": "uint256",
                    "name": "count",
                    "type": "uint256"
                }
            ],
            "name": "reserve",
            "outputs": [],
            "stateMutability": "nonpayable",
            "type": "function"
        },
        {
            "inputs": [
                {
                    "internalType": "uint256",
                    "name": "tokenId",
                    "type": "uint256"
                },
                {
                    "internalType": "uint256",
                    "name": "salePrice",
                    "type": "uint256"
                }
            ],
            "name": "royaltyInfo",
            "outputs": [
                {
                    "internalType": "address",
                    "name": "receiver",
                    "type": "address"
                },
                {
                    "internalType": "uint256",
                    "name": "royaltyAmount",
                    "type": "uint256"
                }
            ],
            "stateMutability": "view",
            "type": "function"
        },
        {
            "inputs": [
                {
                    "internalType": "address",
                    "name": "from",
                    "type": "address"
                },
                {
                    "internalType": "address",
                    "name": "to",
                    "type": "address"
                },
                {
                    "internalType": "uint256",
                    "name": "tokenId",
                    "type": "uint256"
                }
            ],
            "name": "safeTransferFrom",
            "outputs": [],
            "stateMutability": "nonpayable",
            "type": "function"
        },
        {
            "inputs": [
                {
                    "internalType": "address",
                    "name": "from",
                    "type": "address"
                },
                {
                    "internalType": "address",
                    "name": "to",
                    "type": "address"
                },
                {
                    "internalType": "uint256",
                    "name": "tokenId",
                    "type": "uint256"
                },
                {
                    "internalType": "bytes",
                    "name": "_data",
                    "type": "bytes"
                }
            ],
            "name": "safeTransferFrom",
            "outputs": [],
            "stateMutability": "nonpayable",
            "type": "function"
        },
        {
            "inputs": [],
            "name": "saleLive",
            "outputs": [
                {
                    "internalType": "bool",
                    "name": "",
                    "type": "bool"
                }
            ],
            "stateMutability": "view",
            "type": "function"
        },
        {
            "inputs": [
                {
                    "internalType": "address",
                    "name": "operator",
                    "type": "address"
                },
                {
                    "internalType": "bool",
                    "name": "approved",
                    "type": "bool"
                }
            ],
            "name": "setApprovalForAll",
            "outputs": [],
            "stateMutability": "nonpayable",
            "type": "function"
        },
        {
            "inputs": [
                {
                    "internalType": "string",
                    "name": "baseURI_",
                    "type": "string"
                }
            ],
            "name": "setBaseURI",
            "outputs": [],
            "stateMutability": "nonpayable",
            "type": "function"
        },
        {
            "inputs": [
                {
                    "internalType": "string",
                    "name": "uri",
                    "type": "string"
                }
            ],
            "name": "setContractURI",
            "outputs": [],
            "stateMutability": "nonpayable",
            "type": "function"
        },
        {
            "inputs": [
                {
                    "internalType": "bool",
                    "name": "_isOpenSeaProxyActive",
                    "type": "bool"
                }
            ],
            "name": "setIsOpenSeaProxyActive",
            "outputs": [],
            "stateMutability": "nonpayable",
            "type": "function"
        },
        {
            "inputs": [
                {
                    "internalType": "bytes32",
                    "name": "_merkleRoot",
                    "type": "bytes32"
                }
            ],
            "name": "setRoot",
            "outputs": [],
            "stateMutability": "nonpayable",
            "type": "function"
        },
        {
            "inputs": [
                {
                    "internalType": "bytes4",
                    "name": "interfaceId",
                    "type": "bytes4"
                }
            ],
            "name": "supportsInterface",
            "outputs": [
                {
                    "internalType": "bool",
                    "name": "",
                    "type": "bool"
                }
            ],
            "stateMutability": "view",
            "type": "function"
        },
        {
            "inputs": [],
            "name": "symbol",
            "outputs": [
                {
                    "internalType": "string",
                    "name": "",
                    "type": "string"
                }
            ],
            "stateMutability": "view",
            "type": "function"
        },
        {
            "inputs": [],
            "name": "toggleSale",
            "outputs": [],
            "stateMutability": "nonpayable",
            "type": "function"
        },
        {
            "inputs": [],
            "name": "toggleWhitelist",
            "outputs": [],
            "stateMutability": "nonpayable",
            "type": "function"
        },
        {
            "inputs": [
                {
                    "internalType": "uint256",
                    "name": "index",
                    "type": "uint256"
                }
            ],
            "name": "tokenByIndex",
            "outputs": [
                {
                    "internalType": "uint256",
                    "name": "",
                    "type": "uint256"
                }
            ],
            "stateMutability": "view",
            "type": "function"
        },
        {
            "inputs": [
                {
                    "internalType": "address",
                    "name": "owner",
                    "type": "address"
                },
                {
                    "internalType": "uint256",
                    "name": "index",
                    "type": "uint256"
                }
            ],
            "name": "tokenOfOwnerByIndex",
            "outputs": [
                {
                    "internalType": "uint256",
                    "name": "",
                    "type": "uint256"
                }
            ],
            "stateMutability": "view",
            "type": "function"
        },
        {
            "inputs": [
                {
                    "internalType": "uint256",
                    "name": "tokenId",
                    "type": "uint256"
                }
            ],
            "name": "tokenURI",
            "outputs": [
                {
                    "internalType": "string",
                    "name": "",
                    "type": "string"
                }
            ],
            "stateMutability": "view",
            "type": "function"
        },
        {
            "inputs": [],
            "name": "totalSupply",
            "outputs": [
                {
                    "internalType": "uint256",
                    "name": "",
                    "type": "uint256"
                }
            ],
            "stateMutability": "view",
            "type": "function"
        },
        {
            "inputs": [
                {
                    "internalType": "address",
                    "name": "from",
                    "type": "address"
                },
                {
                    "internalType": "address",
                    "name": "to",
                    "type": "address"
                },
                {
                    "internalType": "uint256",
                    "name": "tokenId",
                    "type": "uint256"
                }
            ],
            "name": "transferFrom",
            "outputs": [],
            "stateMutability": "nonpayable",
            "type": "function"
        },
        {
            "inputs": [
                {
                    "internalType": "address",
                    "name": "newOwner",
                    "type": "address"
                }
            ],
            "name": "transferOwnership",
            "outputs": [],
            "stateMutability": "nonpayable",
            "type": "function"
        },
        {
            "inputs": [
                {
                    "internalType": "address",
                    "name": "receiver",
                    "type": "address"
                }
            ],
            "name": "updateRoyaltyReceiver",
            "outputs": [],
            "stateMutability": "nonpayable",
            "type": "function"
        },
        {
            "inputs": [
                {
                    "internalType": "address",
                    "name": "",
                    "type": "address"
                }
            ],
            "name": "whiteListPurchases",
            "outputs": [
                {
                    "internalType": "uint256",
                    "name": "",
                    "type": "uint256"
                }
            ],
            "stateMutability": "view",
            "type": "function"
        },
        {
            "inputs": [],
            "name": "whitelistLive",
            "outputs": [
                {
                    "internalType": "bool",
                    "name": "",
                    "type": "bool"
                }
            ],
            "stateMutability": "view",
            "type": "function"
        },
        {
            "inputs": [
                {
                    "internalType": "uint256",
                    "name": "mintsRequested",
                    "type": "uint256"
                },
                {
                    "internalType": "uint256",
                    "name": "maxMints",
                    "type": "uint256"
                },
                {
                    "internalType": "bytes32[]",
                    "name": "proof",
                    "type": "bytes32[]"
                }
            ],
            "name": "whitelistMint",
            "outputs": [],
            "stateMutability": "payable",
            "type": "function"
        },
        {
            "inputs": [],
            "name": "withdraw",
            "outputs": [],
            "stateMutability": "nonpayable",
            "type": "function"
        }
    ],
    "bytecode": "0x60a060405260006001819055600855600a805460ff60a01b1916600160a01b179055600d80546001600160a01b031916735ed63846531db1efc08f7fba9c795007980f4abd1790553480156200005457600080fd5b5060405162002e8b38038062002e8b8339810160408190526200007791620002a0565b6040518060400160405280601781526020017f4c6567656e64204d61707320416476656e747572657273000000000000000000815250604051806040016040528060038152602001624c4d4160e81b81525060c8620000e5620000df620001a660201b60201c565b620001aa565b600081116200014a5760405162461bcd60e51b815260206004820152602760248201527f455243373231413a206d61782062617463682073697a65206d757374206265206044820152666e6f6e7a65726f60c81b606482015260840160405180910390fd5b82516200015f906002906020860190620001fa565b50815162000175906003906020850190620001fa565b5060805250506001600955600a80546001600160a01b0319166001600160a01b03929092169190911790556200030d565b3390565b600080546001600160a01b038381166001600160a01b0319831681178455604051919092169283917f8be0079c531659141344cd1fd0a4f28419497f9722a3daafe3b4186f6b6457e09190a35050565b8280546200020890620002d0565b90600052602060002090601f0160209004810192826200022c576000855562000277565b82601f106200024757805160ff191683800117855562000277565b8280016001018555821562000277579182015b82811115620002775782518255916020019190600101906200025a565b506200028592915062000289565b5090565b5b808211156200028557600081556001016200028a565b600060208284031215620002b2578081fd5b81516001600160a01b0381168114620002c9578182fd5b9392505050565b600181811c90821680620002e557607f821691505b602082108114156200030757634e487b7160e01b600052602260045260246000fd5b50919050565b608051612b546200033760003960008181611bc701528181611bf1015261205b0152612b546000f3fe60806040526004361061023b5760003560e01c80637d8966e41161012e578063b88d4fde116100ab578063e081b7811161006f578063e081b78114610680578063e43082f71461069f578063e8a3d485146106bf578063e985e9c5146106d4578063f2fde38b146106f457600080fd5b8063b88d4fde146105f7578063c4be5b5914610617578063c87b56dd1461062a578063d7224ba01461064a578063dab5f3401461066057600080fd5b8063938e3d7b116100f2578063938e3d7b1461057557806395d89b41146105955780639979a194146105aa578063a0712d68146105c4578063a22cb465146105d757600080fd5b80637d8966e4146104f75780637e15144b1461050c578063819b25ba146105215780638d5552b2146105415780638da5cb5b1461055757600080fd5b80633ccfd60b116101bc5780635ea08c25116101805780635ea08c251461045a5780636352211e146104755780636f9b7cf61461049557806370a08231146104c2578063715018a6146104e257600080fd5b80633ccfd60b146103c557806342842e0e146103da5780634f6ccce7146103fa57806355f804b31461041a5780635c23d7a01461043a57600080fd5b806323b872dd1161020357806323b872dd1461031057806329dc4d9b146103305780632a55205a146103505780632eb4a7ab1461038f5780632f745c59146103a557600080fd5b806301ffc9a71461024057806306fdde0314610275578063081812fc14610297578063095ea7b3146102cf57806318160ddd146102f1575b600080fd5b34801561024c57600080fd5b5061026061025b36600461267f565b610714565b60405190151581526020015b60405180910390f35b34801561028157600080fd5b5061028a61073f565b60405161026c91906128bd565b3480156102a357600080fd5b506102b76102b2366004612667565b6107d1565b6040516001600160a01b03909116815260200161026c565b3480156102db57600080fd5b506102ef6102ea366004612622565b610861565b005b3480156102fd57600080fd5b506001545b60405190815260200161026c565b34801561031c57600080fd5b506102ef61032b366004612531565b610979565b34801561033c57600080fd5b506102ef61034b3660046124dd565b610984565b34801561035c57600080fd5b5061037061036b366004612786565b6109d0565b604080516001600160a01b03909316835260208301919091520161026c565b34801561039b57600080fd5b50610302600e5481565b3480156103b157600080fd5b506103026103c0366004612622565b610a4a565b3480156103d157600080fd5b506102ef610bc3565b3480156103e657600080fd5b506102ef6103f5366004612531565b610c7d565b34801561040657600080fd5b50610302610415366004612667565b610c98565b34801561042657600080fd5b506102ef610435366004612740565b610d01565b34801561044657600080fd5b50610302610455366004612622565b610d42565b34801561046657600080fd5b50610302668e1bc9bf04000081565b34801561048157600080fd5b506102b7610490366004612667565b610d6c565b3480156104a157600080fd5b506103026104b03660046124dd565b60106020526000908152604090205481565b3480156104ce57600080fd5b506103026104dd3660046124dd565b610d7e565b3480156104ee57600080fd5b506102ef610e0f565b34801561050357600080fd5b506102ef610e45565b34801561051857600080fd5b506102ef610e8c565b34801561052d57600080fd5b506102ef61053c366004612667565b610eca565b34801561054d57600080fd5b5061030261225381565b34801561056357600080fd5b506000546001600160a01b03166102b7565b34801561058157600080fd5b506102ef6105903660046126d3565b610f01565b3480156105a157600080fd5b5061028a610f37565b3480156105b657600080fd5b50600f546102609060ff1681565b6102ef6105d2366004612667565b610f46565b3480156105e357600080fd5b506102ef6105f23660046125ee565b611078565b34801561060357600080fd5b506102ef610612366004612571565b61113d565b6102ef6106253660046127a7565b611176565b34801561063657600080fd5b5061028a610645366004612667565b611408565b34801561065657600080fd5b5061030260085481565b34801561066c57600080fd5b506102ef61067b366004612667565b6114d4565b34801561068c57600080fd5b50600f5461026090610100900460ff1681565b3480156106ab57600080fd5b506102ef6106ba36600461264d565b611503565b3480156106cb57600080fd5b5061028a61154b565b3480156106e057600080fd5b506102606106ef3660046124f9565b61155a565b34801561070057600080fd5b506102ef61070f3660046124dd565b611646565b60006001600160e01b0319821663152a902d60e11b14806107395750610739826116de565b92915050565b60606002805461074e90612a47565b80601f016020809104026020016040519081016040528092919081815260200182805461077a90612a47565b80156107c75780601f1061079c576101008083540402835291602001916107c7565b820191906000526020600020905b8154815290600101906020018083116107aa57829003601f168201915b5050505050905090565b60006107de826001541190565b6108455760405162461bcd60e51b815260206004820152602d60248201527f455243373231413a20617070726f76656420717565727920666f72206e6f6e6560448201526c3c34b9ba32b73a103a37b5b2b760991b60648201526084015b60405180910390fd5b506000908152600660205260409020546001600160a01b031690565b600061086c82610d6c565b9050806001600160a01b0316836001600160a01b031614156108db5760405162461bcd60e51b815260206004820152602260248201527f455243373231413a20617070726f76616c20746f2063757272656e74206f776e60448201526132b960f11b606482015260840161083c565b336001600160a01b03821614806108f757506108f7813361155a565b6109695760405162461bcd60e51b815260206004820152603960248201527f455243373231413a20617070726f76652063616c6c6572206973206e6f74206f60448201527f776e6572206e6f7220617070726f76656420666f7220616c6c00000000000000606482015260840161083c565b610974838383611749565b505050565b6109748383836117a5565b6000546001600160a01b031633146109ae5760405162461bcd60e51b815260040161083c906128d0565b600d80546001600160a01b0319166001600160a01b0392909216919091179055565b6000806109de846001541190565b610a1e5760405162461bcd60e51b81526020600482015260116024820152702737b732bc34b9ba32b73a103a37b5b2b760791b604482015260640161083c565b600d546001600160a01b0316610a3f610a38856005611b2d565b6064611b39565b915091509250929050565b6000610a5583610d7e565b8210610aae5760405162461bcd60e51b815260206004820152602260248201527f455243373231413a206f776e657220696e646578206f7574206f6620626f756e604482015261647360f01b606482015260840161083c565b6000610ab960015490565b905060008060005b83811015610b63576000818152600460209081526040918290208251808401909352546001600160a01b038116808452600160a01b90910467ffffffffffffffff169183019190915215610b1457805192505b876001600160a01b0316836001600160a01b03161415610b505786841415610b425750935061073992505050565b83610b4c81612a82565b9450505b5080610b5b81612a82565b915050610ac1565b5060405162461bcd60e51b815260206004820152602e60248201527f455243373231413a20756e61626c6520746f2067657420746f6b656e206f662060448201526d0deeedccae440c4f240d2dcc8caf60931b606482015260840161083c565b6000546001600160a01b03163314610bed5760405162461bcd60e51b815260040161083c906128d0565b60026009541415610c405760405162461bcd60e51b815260206004820152601f60248201527f5265656e7472616e637947756172643a207265656e7472616e742063616c6c00604482015260640161083c565b60026009556040514790339082156108fc029083906000818181858888f19350505050158015610c74573d6000803e3d6000fd5b50506001600955565b6109748383836040518060200160405280600081525061113d565b6000610ca360015490565b8210610cfd5760405162461bcd60e51b815260206004820152602360248201527f455243373231413a20676c6f62616c20696e646578206f7574206f6620626f756044820152626e647360e81b606482015260840161083c565b5090565b6000546001600160a01b03163314610d2b5760405162461bcd60e51b815260040161083c906128d0565b8051610d3e90600c906020840190612349565b5050565b6001600160a01b038216600090815260106020526040812054610d6590836129ed565b9392505050565b6000610d7782611b45565b5192915050565b60006001600160a01b038216610dea5760405162461bcd60e51b815260206004820152602b60248201527f455243373231413a2062616c616e636520717565727920666f7220746865207a60448201526a65726f206164647265737360a81b606482015260840161083c565b506001600160a01b03166000908152600560205260409020546001600160801b031690565b6000546001600160a01b03163314610e395760405162461bcd60e51b815260040161083c906128d0565b610e436000611cef565b565b6000546001600160a01b03163314610e6f5760405162461bcd60e51b815260040161083c906128d0565b600f805461ff001981166101009182900460ff1615909102179055565b6000546001600160a01b03163314610eb65760405162461bcd60e51b815260040161083c906128d0565b600f805460ff19811660ff90911615179055565b6000546001600160a01b03163314610ef45760405162461bcd60e51b815260040161083c906128d0565b610efe3382611d3f565b50565b6000546001600160a01b03163314610f2b5760405162461bcd60e51b815260040161083c906128d0565b610974600b83836123c9565b60606003805461074e90612a47565b600f54610100900460ff16610f8b5760405162461bcd60e51b815260206004820152600b60248201526a14d0531157d0d313d4d15160aa1b604482015260640161083c565b600f5460ff1615610fcf5760405162461bcd60e51b815260206004820152600e60248201526d57484954454c4953545f4f4e4c5960901b604482015260640161083c565b34610fe182668e1bc9bf0400006129a6565b11156110225760405162461bcd60e51b815260206004820152601060248201526f0929ca6aa8c8c9286928a9ca8be8aa8960831b604482015260640161083c565b6122538161102f60015490565b611039919061297a565b1115610ef45760405162461bcd60e51b815260206004820152600e60248201526d455843454544535f535550504c5960901b604482015260640161083c565b6001600160a01b0382163314156110d15760405162461bcd60e51b815260206004820152601a60248201527f455243373231413a20617070726f766520746f2063616c6c6572000000000000604482015260640161083c565b3360008181526007602090815260408083206001600160a01b03871680855290835292819020805460ff191686151590811790915590519081529192917f17307eab39ab6107e8899845ad3d59bd9653f200f220920489ca2b5937696c31910160405180910390a35050565b6111488484846117a5565b61115484848484611d59565b6111705760405162461bcd60e51b815260040161083c90612905565b50505050565b3360009081526010602052604081205461119090856129ed565b600f54909150610100900460ff161580156111ad5750600f5460ff165b6111ec5760405162461bcd60e51b815260206004820152601060248201526f15d2125511531254d517d0d313d4d15160821b604482015260640161083c565b604080513360601b6bffffffffffffffffffffffff19166020808301919091526034808301889052835180840390910181526054909201909252805191012061126890848480806020026020016040519081016040528093929190818152602001838360200280828437600092019190915250611e6692505050565b6112a35760405162461bcd60e51b815260206004820152600c60248201526b15539055551213d49256915160a21b604482015260640161083c565b612253856112b060015490565b6112ba919061297a565b11156112f95760405162461bcd60e51b815260206004820152600e60248201526d455843454544535f535550504c5960901b604482015260640161083c565b3461130b86668e1bc9bf0400006129a6565b111561134c5760405162461bcd60e51b815260206004820152601060248201526f0929ca6aa8c8c9286928a9ca8be8aa8960831b604482015260640161083c565b808511156113915760405162461bcd60e51b815260206004820152601260248201527122ac21a2a2a229afa0a62627a1a0aa24a7a760711b604482015260640161083c565b600081116113d25760405162461bcd60e51b815260206004820152600e60248201526d1352539514d7d0d3d394d553515160921b604482015260640161083c565b33600090815260106020526040812080548792906113f190849061297a565b9091555061140190503386611d3f565b5050505050565b6060611415826001541190565b6114795760405162461bcd60e51b815260206004820152602f60248201527f4552433732314d657461646174613a2055524920717565727920666f72206e6f60448201526e3732bc34b9ba32b73a103a37b5b2b760891b606482015260840161083c565b6000611483611e75565b905060008151116114a35760405180602001604052806000815250610d65565b806114ad84611e84565b6040516020016114be929190612851565b6040516020818303038152906040529392505050565b6000546001600160a01b031633146114fe5760405162461bcd60e51b815260040161083c906128d0565b600e55565b6000546001600160a01b0316331461152d5760405162461bcd60e51b815260040161083c906128d0565b600a8054911515600160a01b0260ff60a01b19909216919091179055565b6060600b805461074e90612a47565b600a546000906001600160a01b03811690600160a01b900460ff168015611605575060405163c455279160e01b81526001600160a01b038581166004830152808516919083169063c45527919060240160206040518083038186803b1580156115c257600080fd5b505afa1580156115d6573d6000803e3d6000fd5b505050506040513d601f19601f820116820180604052508101906115fa91906126b7565b6001600160a01b0316145b15611614576001915050610739565b6001600160a01b0380851660009081526007602090815260408083209387168352929052205460ff165b949350505050565b6000546001600160a01b031633146116705760405162461bcd60e51b815260040161083c906128d0565b6001600160a01b0381166116d55760405162461bcd60e51b815260206004820152602660248201527f4f776e61626c653a206e6577206f776e657220697320746865207a65726f206160448201526564647265737360d01b606482015260840161083c565b610efe81611cef565b60006001600160e01b031982166380ac58cd60e01b148061170f57506001600160e01b03198216635b5e139f60e01b145b8061172a57506001600160e01b0319821663780e9d6360e01b145b8061073957506301ffc9a760e01b6001600160e01b0319831614610739565b60008281526006602052604080822080546001600160a01b0319166001600160a01b0387811691821790925591518593918516917f8c5be1e5ebec7d5bd14f71427d1e84f3dd0314c0f7b2291e5b200ac8c7c3b92591a4505050565b60006117b082611b45565b80519091506000906001600160a01b0316336001600160a01b031614806117e75750336117dc846107d1565b6001600160a01b0316145b806117f9575081516117f9903361155a565b9050806118635760405162461bcd60e51b815260206004820152603260248201527f455243373231413a207472616e736665722063616c6c6572206973206e6f74206044820152711bdddb995c881b9bdc88185c1c1c9bdd995960721b606482015260840161083c565b846001600160a01b031682600001516001600160a01b0316146118d75760405162461bcd60e51b815260206004820152602660248201527f455243373231413a207472616e736665722066726f6d20696e636f72726563746044820152651037bbb732b960d11b606482015260840161083c565b6001600160a01b03841661193b5760405162461bcd60e51b815260206004820152602560248201527f455243373231413a207472616e7366657220746f20746865207a65726f206164604482015264647265737360d81b606482015260840161083c565b61194b6000848460000151611749565b6001600160a01b038516600090815260056020526040812080546001929061197d9084906001600160801b03166129c5565b82546101009290920a6001600160801b038181021990931691831602179091556001600160a01b038616600090815260056020526040812080546001945090926119c991859116612958565b82546001600160801b039182166101009390930a9283029190920219909116179055506040805180820182526001600160a01b03808716825267ffffffffffffffff428116602080850191825260008981526004909152948520935184549151909216600160a01b026001600160e01b03199091169190921617179055611a5184600161297a565b6000818152600460205260409020549091506001600160a01b0316611ae357611a7b816001541190565b15611ae35760408051808201825284516001600160a01b03908116825260208087015167ffffffffffffffff9081168285019081526000878152600490935294909120925183549451909116600160a01b026001600160e01b03199094169116179190911790555b83856001600160a01b0316876001600160a01b03167fddf252ad1be2c89b69c2b068fc378daa952ba7f163c4a11628f55a4df523b3ef60405160405180910390a45b505050505050565b6000610d6582846129a6565b6000610d658284612992565b6040805180820190915260008082526020820152611b64826001541190565b611bc35760405162461bcd60e51b815260206004820152602a60248201527f455243373231413a206f776e657220717565727920666f72206e6f6e657869736044820152693a32b73a103a37b5b2b760b11b606482015260840161083c565b60007f00000000000000000000000000000000000000000000000000000000000000008310611c2457611c167f0000000000000000000000000000000000000000000000000000000000000000846129ed565b611c2190600161297a565b90505b825b818110611c8e576000818152600460209081526040918290208251808401909352546001600160a01b038116808452600160a01b90910467ffffffffffffffff169183019190915215611c7b57949350505050565b5080611c8681612a30565b915050611c26565b5060405162461bcd60e51b815260206004820152602f60248201527f455243373231413a20756e61626c6520746f2064657465726d696e652074686560448201526e1037bbb732b91037b3103a37b5b2b760891b606482015260840161083c565b600080546001600160a01b038381166001600160a01b0319831681178455604051919092169283917f8be0079c531659141344cd1fd0a4f28419497f9722a3daafe3b4186f6b6457e09190a35050565b610d3e828260405180602001604052806000815250611f9e565b60006001600160a01b0384163b15611e5b57604051630a85bd0160e11b81526001600160a01b0385169063150b7a0290611d9d903390899088908890600401612880565b602060405180830381600087803b158015611db757600080fd5b505af1925050508015611de7575060408051601f3d908101601f19168201909252611de49181019061269b565b60015b611e41573d808015611e15576040519150601f19603f3d011682016040523d82523d6000602084013e611e1a565b606091505b508051611e395760405162461bcd60e51b815260040161083c90612905565b805181602001fd5b6001600160e01b031916630a85bd0160e11b14905061163e565b506001949350505050565b6000610d6582600e5485612279565b6060600c805461074e90612a47565b606081611ea85750506040805180820190915260018152600360fc1b602082015290565b8160005b8115611ed25780611ebc81612a82565b9150611ecb9050600a83612992565b9150611eac565b60008167ffffffffffffffff811115611efb57634e487b7160e01b600052604160045260246000fd5b6040519080825280601f01601f191660200182016040528015611f25576020820181803683370190505b5090505b841561163e57611f3a6001836129ed565b9150611f47600a86612a9d565b611f5290603061297a565b60f81b818381518110611f7557634e487b7160e01b600052603260045260246000fd5b60200101906001600160f81b031916908160001a905350611f97600a86612992565b9450611f29565b6001546001600160a01b0384166120015760405162461bcd60e51b815260206004820152602160248201527f455243373231413a206d696e7420746f20746865207a65726f206164647265736044820152607360f81b606482015260840161083c565b61200c816001541190565b156120595760405162461bcd60e51b815260206004820152601d60248201527f455243373231413a20746f6b656e20616c7265616479206d696e746564000000604482015260640161083c565b7f00000000000000000000000000000000000000000000000000000000000000008311156120d45760405162461bcd60e51b815260206004820152602260248201527f455243373231413a207175616e7469747920746f206d696e7420746f6f2068696044820152610ced60f31b606482015260840161083c565b6001600160a01b0384166000908152600560209081526040918290208251808401845290546001600160801b038082168352600160801b9091041691810191909152815180830190925280519091908190612130908790612958565b6001600160801b0316815260200185836020015161214e9190612958565b6001600160801b039081169091526001600160a01b0380881660008181526005602090815260408083208751978301518716600160801b0297909616969096179094558451808601865291825267ffffffffffffffff4281168386019081528883526004909552948120915182549451909516600160a01b026001600160e01b031990941694909216939093179190911790915582905b8581101561226e5760405182906001600160a01b038916906000907fddf252ad1be2c89b69c2b068fc378daa952ba7f163c4a11628f55a4df523b3ef908290a46122326000888488611d59565b61224e5760405162461bcd60e51b815260040161083c90612905565b8161225881612a82565b925050808061226690612a82565b9150506121e5565b506001819055611b25565b600082612286858461228f565b14949350505050565b600081815b84518110156123415760008582815181106122bf57634e487b7160e01b600052603260045260246000fd5b6020026020010151905080831161230157604080516020810185905290810182905260600160405160208183030381529060405280519060200120925061232e565b60408051602081018390529081018490526060016040516020818303038152906040528051906020012092505b508061233981612a82565b915050612294565b509392505050565b82805461235590612a47565b90600052602060002090601f01602090048101928261237757600085556123bd565b82601f1061239057805160ff19168380011785556123bd565b828001600101855582156123bd579182015b828111156123bd5782518255916020019190600101906123a2565b50610cfd92915061243d565b8280546123d590612a47565b90600052602060002090601f0160209004810192826123f757600085556123bd565b82601f106124105782800160ff198235161785556123bd565b828001600101855582156123bd579182015b828111156123bd578235825591602001919060010190612422565b5b80821115610cfd576000815560010161243e565b600067ffffffffffffffff8084111561246d5761246d612add565b604051601f8501601f19908116603f0116810190828211818310171561249557612495612add565b816040528093508581528686860111156124ae57600080fd5b858560208301376000602087830101525050509392505050565b803580151581146124d857600080fd5b919050565b6000602082840312156124ee578081fd5b8135610d6581612af3565b6000806040838503121561250b578081fd5b823561251681612af3565b9150602083013561252681612af3565b809150509250929050565b600080600060608486031215612545578081fd5b833561255081612af3565b9250602084013561256081612af3565b929592945050506040919091013590565b60008060008060808587031215612586578081fd5b843561259181612af3565b935060208501356125a181612af3565b925060408501359150606085013567ffffffffffffffff8111156125c3578182fd5b8501601f810187136125d3578182fd5b6125e287823560208401612452565b91505092959194509250565b60008060408385031215612600578182fd5b823561260b81612af3565b9150612619602084016124c8565b90509250929050565b60008060408385031215612634578182fd5b823561263f81612af3565b946020939093013593505050565b60006020828403121561265e578081fd5b610d65826124c8565b600060208284031215612678578081fd5b5035919050565b600060208284031215612690578081fd5b8135610d6581612b08565b6000602082840312156126ac578081fd5b8151610d6581612b08565b6000602082840312156126c8578081fd5b8151610d6581612af3565b600080602083850312156126e5578182fd5b823567ffffffffffffffff808211156126fc578384fd5b818501915085601f83011261270f578384fd5b81358181111561271d578485fd5b86602082850101111561272e578485fd5b60209290920196919550909350505050565b600060208284031215612751578081fd5b813567ffffffffffffffff811115612767578182fd5b8201601f81018413612777578182fd5b61163e84823560208401612452565b60008060408385031215612798578182fd5b50508035926020909101359150565b600080600080606085870312156127bc578182fd5b8435935060208501359250604085013567ffffffffffffffff808211156127e1578384fd5b818701915087601f8301126127f4578384fd5b813581811115612802578485fd5b8860208260051b8501011115612816578485fd5b95989497505060200194505050565b6000815180845261283d816020860160208601612a04565b601f01601f19169290920160200192915050565b60008351612863818460208801612a04565b835190830190612877818360208801612a04565b01949350505050565b6001600160a01b03858116825284166020820152604081018390526080606082018190526000906128b390830184612825565b9695505050505050565b602081526000610d656020830184612825565b6020808252818101527f4f776e61626c653a2063616c6c6572206973206e6f7420746865206f776e6572604082015260600190565b60208082526033908201527f455243373231413a207472616e7366657220746f206e6f6e204552433732315260408201527232b1b2b4bb32b91034b6b83632b6b2b73a32b960691b606082015260800190565b60006001600160801b0380831681851680830382111561287757612877612ab1565b6000821982111561298d5761298d612ab1565b500190565b6000826129a1576129a1612ac7565b500490565b60008160001904831182151516156129c0576129c0612ab1565b500290565b60006001600160801b03838116908316818110156129e5576129e5612ab1565b039392505050565b6000828210156129ff576129ff612ab1565b500390565b60005b83811015612a1f578181015183820152602001612a07565b838111156111705750506000910152565b600081612a3f57612a3f612ab1565b506000190190565b600181811c90821680612a5b57607f821691505b60208210811415612a7c57634e487b7160e01b600052602260045260246000fd5b50919050565b6000600019821415612a9657612a96612ab1565b5060010190565b600082612aac57612aac612ac7565b500690565b634e487b7160e01b600052601160045260246000fd5b634e487b7160e01b600052601260045260246000fd5b634e487b7160e01b600052604160045260246000fd5b6001600160a01b0381168114610efe57600080fd5b6001600160e01b031981168114610efe57600080fdfea26469706673582212209d6933fcc35be10912d488df489547a609e1278a6dd7c4b1e19fc015aa2113fe64736f6c63430008040033",
    "linkReferences": {},
    "deployedLinkReferences": {}
}